:020000040804EE
:10000000F80F0120E5030408AB080508DDF4040837
:10001000A70805085D3804088939050800000000B4
:10002000000000000000000000000000250404089B
:100030008940040800000000BD040408CD04040841
:10004000FF030408FF030408FF030408AD0D0508BF
:10005000FF030408FF030408FF030408FF03040868
:10006000FF030408FF030408FF030408FF03040858
:10007000FF030408FF030408FF030408FF03040848
:10008000FF030408FF030408FF0304085948040899
:1000900069480408FF030408FF030408FF03040879
:1000A000FF030408FF030408FF030408FF03040818
:1000B000051705082517050839170508E1F4040890
:1000C000FF030408F1F40408FF030408FF03040815
:1000D000150E0508313905083B390508453905086D
:1000E000FF030408FF03040800000000FF030408E6
:1000F000A1170508FF030408FF030408FF03040811
:10010000FF030408FF03040855170508250E05081A
:10011000011C05080B1C05086D170508FF030408E2
:10012000FF030408FF030408FF030408FF03040897
:10013000FF030408FF030408FF030408FF03040887
:1001400000000000000000000000000000000000AF
:10015000FF030408FF030408FF0304084F390508E0
:1001600001F50408FF030408FF030408FF03040863
:10017000FF030408FF030408FF0304080000000055
:10018000FF030408FF030408151C05081F1C0508CD
:10019000FF030408FF030408FF030408FF03040827
:1001A000FF030408FF030408FF030408FF03040817
:1001B000FF030408FF030408FF03040811F5040803
:1001C000FF030408FF030408FF030408FF030408F7
:1001D000FF030408FF030408FF030408FF030408E7
:1001E000FF030408FF030408FF030408FF030408D7
:1001F000FF030408FF030408FF030408FF030408C7
:10020000FF030408FF030408FF030408FF030408B6
:10021000C5160508D9160508ED160508FF030408DC
:10022000FF030408FF030408FF03040800000000A4
:10023000FF030408FF03040800000000FF03040894
:10024000FF030408FF030408FF030408FF03040876
:10025000FF030408FF030408FF030408FF03040866
:10026000FF030408FF030408FF030408FF03040856
:10027000FF030408FF0304089D08050800000000B0
:10028000FF030408FF030408FF0304080000000044
:1002900000000000FF03040800F002F800F06DF811
:1002A0000AA090E8000C82448344AAF10107DA45D1
:1002B00001D100F062F8AFF2090EBAE80F0013F0B6
:1002C000010F18BFFB1A43F00103184710560A002C
:1002D00050560A000A444FF0000C10F8013B13F08E
:1002E000070408BF10F8014B1D1108BF10F8015B8F
:1002F000641E05D010F8016B641E01F8016BF9D182
:1003000013F0080F1EBF10F8014BAD1C0C1B09D1D8
:100310006D1E58BF01F801CBFAD505E014F8016B4A
:1003200001F8016B6D1EF9D59142D6D370470000DC
:100330000023002400250026103A28BF78C1FBD8EE
:10034000520728BF30C148BF0B6070471FB5A1F0EE
:10035000BBFE9DE8030000F066FC00F0FCFA00F034
:100360004BFF040000200021A1F0E2FC401C606073
:100370001FBD10B500F0FCFE10BD00F0CBFE114615
:1003800003B49DF098FB03BCFFF7E0FF9EF002F979
:1003900000F0F6FE03B4FFF7ECFF03BC00F026FF0D
:1003A00030BF72B6704762B6704780F308887047F6
:1003B0000B49D1F800C04A685CF8043B1068184447
:1003C00042F8040B8C4528BFA1F1DC0C8A4228BFFF
:1003D000A1F1DC02C1F800C04A6020F00040704783
:1003E0008CE900200948804709480047FEE7FEE7FE
:1003F000FEE7FEE7FEE7FEE7FEE7FEE7FEE7FEE7D5
:1004000004480549054A064B704700002D160508AB
:1004100099020408F8E90020F80F0120F8EF002005
:10042000F8EF00201EF0040F0CBFEFF30880EFF38D
:100430000980816911F8021C91BB01B590E80F1089
:10044000E047BDE800508CE80300244B93E8060029
:10045000914208BF704741B91EF0100F10D12049DA
:10046000086820F0010008600AE02CE9F00F1EF097
:10047000100F08BF2CED108AC1F838C081F822E0B7
:100480001A6092F82210906B61F0FF0E1EF0100FB0
:1004900008BFB0EC108AB0E8F00F80F3098870470D
:1004A000104A13689942FAD801B552F821C00FC812
:1004B000E047BDE80050CCF80000704701B501F0FE
:1004C00087FBBDE80140EFF3098CBEE701B501F001
:1004D000E9FDBDE80140EFF3098CB6E7906F00201D
:1004E00034EF00E0E0270E080B3020F007007047E3
:1004F0002DE9F04117460E460446FFF7F5FFA042EE
:10050000054633D9002F1CBF06F10C009DF0A8FA58
:1005100030467468F4B12168A94217D305F1080286
:1005200091423CBF6168416007D3626861194A60CB
:100530002268521B0A6041602560002F1CBF06F133
:100540000C009DF0AFFA201DBDE8F08120466468E4
:10055000002CE0D12946304600F051FB0028D7D1CD
:10056000002F1CBF06F10C009DF09CFA0020BDE896
:10057000F08110B5044600F039FB01682046BDE863
:1005800010400122B4E770B516460D46041F00283E
:1005900008BF70BD002E1CBF05F10C009DF060FA75
:1005A0002B465868002818BFA04238BF0346F8D32E
:1005B0001968CA18A24218BF5C6003D122681C46A1
:1005C0001144196021680A19824218BF606004D181
:1005D00042686260006808442060002E1CBF05F17C
:1005E0000C009DF05FFA70BD10B5044600F0FEFAF5
:1005F00001682046BDE810400122C4E753EA020C1E
:1006000000F069802DE9F04B4FF00006002B1FBF72
:10061000B3FA83F503FA05F424FA05F65E4012BF37
:100620001643B2FA82F502FA05F4C5F120051EBFA1
:1006300022FA05FC44EA0C04203556EA044C4FEA41
:10064000144418BF641C4FF000084FF0000990429A
:1006500071EB030C39D3002919BFB1FA81F701FA04
:1006600007F6B0FA80F700FA07F6C7F120071EBFB9
:1006700020FA07FC46EA0C062037B6FBF4FCA7EB91
:100680000507103F07F01F0BCBF120060CFA0BFB00
:100690002CFA06F644BFB3460026202FA4BF5E46C0
:1006A0004FF0000B5BEA060C08BF4FF0010B19EB93
:1006B0000B09ABFB027C48EB0608C01B06FB02CC17
:1006C0000BFB03CC71EB0C01C1E70B460246414624
:1006D0004846BDE8F08B13B54FF000004FF0000125
:1006E000AFF30080BDE81C407047B2F120030AD58B
:1006F000C2F1200301FA02F120FA03F300FA02F03A
:1007000041EA0301704700FA03F14FF0000070471F
:10071000B2F120030AD5C2F1200320FA02F001FA57
:1007200003F321FA02F140EA0300704721FA03F0D3
:100730004FF000017047B2F120030AD5C2F1200347
:1007400020FA02F001FA03F341FA02F140EA030051
:10075000704741FA03F04FEAE171704710B54C1051
:1007600084EA530404D54042C1F1000138BF491E58
:100770001B4204D55242C3F1000338BF5B1EFFF792
:100780003DFF14F0804F04D04042C1F1000138BF5A
:10079000491E14F0004F04D05242C3F1000338BF89
:1007A0005B1E10BD0FB400B58DB010A9099000916B
:1007B0000B904FF0FF300A9000200C9006487844D0
:1007C0000690064878446A4607900F9909A800F0F9
:1007D00081FA0DB05DF814FB330500004B050000F5
:1007E0002DE9FF5F1D464FF0FF3B91464FF000089B
:1007F0005F46D5E90146A96901987F1C8847296AA7
:10080000824688470028F6D1BAF1FF3F0CD0002E6F
:1008100024F4C06419DD600614D5BAF12B0F09D099
:10082000BAF12D0F0ED103E0584604B0BDE8F09F99
:1008300044F48064A96901987F1C8847761E82462B
:10084000002E02DDBAF1300F03D0B9F1000F26D02F
:1008500032E0A969761E01987F1C44F40074884731
:10086000002E824605DDBAF1780F06D0BAF1580F96
:1008700003D0B9F1000F10D01EE0B9F1000F02D083
:10088000B9F1100F18D1A969761E01987F1C24F4C4
:10089000007488478246102002E0082000E00A2009
:1008A000814609E0A96908FB0908761E01987F1CAA
:1008B00044F4007488478246002E05DD49465046C0
:1008C00000F0F4F90028EDDAE96901988847A005FD
:1008D00002D46FF00100A8E7E00725D1600613D528
:1008E000600502D5C8F1000000E0404629680A1DF5
:1008F0002A600968220501D5087015E0220701D594
:10090000088011E008600FE02868011D2960006878
:10091000210502D580F8008006E0210702D5A0F865
:10092000008001E0C0F8008038467EE70B4910B532
:10093000A1F17C020A4CC2E93712372106E000EB34
:10094000104342F82130074B00FB03400B1EA1F17E
:100950000101F4DC10BD0120E8E700002CE90020D3
:10096000E119D666CD0D010040EA010310B59B07E1
:100970000FD1042A0DD310C808C9121F9C42F8D009
:1009800020BA19BA884201D9012010BD4FF0FF30BA
:1009900010BD1AB1D30703D0521C07E0002010BDD0
:1009A00010F8013B11F8014B1B1B07D110F8013B5C
:1009B00011F8014B1B1B01D1921EF1D1184610BD3D
:1009C00040EA010370B59B072ED14FF00136042A8F
:1009D0002AD308C810C99D1B9D43121F15EAC615CE
:1009E00017D0D8B2E1B2401A50EA056110D198B2DE
:1009F000A1B2401A50EA05410AD123F07F4024F009
:100A00007F41401A50EA052102D1180EA0EB146074
:100A100070BDA342DBD018BA21BA884201D90120A7
:100A200070BD4FF0FF3070BD0AB9002070BD10F8E6
:100A3000013B11F8014B63B1A3420AD1521E08D009
:100A400010F8013B11F8014B1BB1A34201D1521E1A
:100A5000EDD1181B70BD032A40F2308010F0030C5A
:100A600000F0158011F8013BBCF1020F624498BF01
:100A700011F801CB00F8013B38BF11F8013BA2F19E
:100A8000040298BF00F801CB38BF00F8013B11F019
:100A9000030300F02580083AC0F0088051F8043BB9
:100AA000083A51F804CBA0E80810F5E7121D5CBF26
:100AB00051F8043B40F8043BAFF30080D20724BF59
:100AC00011F8013B11F801CB48BF11F8012B24BFED
:100AD00000F8013B00F801CB48BF00F8012B70473C
:100AE00010B5203AC0F00B80B1E81850203AA0E8C9
:100AF0001850B1E81850A0E81850BFF4F5AF5FEAFD
:100B0000027C24BFB1E81850A0E8185044BF18C9AF
:100B100018C0BDE810405FEA827C24BF51F8043B56
:100B200040F8043B08BF7047D20728BF31F8023BAA
:100B300048BF11F8012B28BF20F8023B48BF00F83E
:100B4000012B704702F0FF0343EA032242EA02420C
:100B500000F002B84FF000020429C0F0128010F03B
:100B6000030C00F01B80CCF1040CBCF1020F18BF89
:100B700000F8012BA8BF20F8022BA1EB0C0100F01C
:100B80000DB85FEAC17C24BF00F8012B00F8012BEF
:100B900048BF00F8012B70474FF0000200B5134624
:100BA00094469646203922BFA0E80C50A0E80C508D
:100BB000B1F12001BFF4F7AF090728BFA0E80C503E
:100BC00048BF0CC05DF804EB890028BF40F8042B37
:100BD00008BF704748BF20F8022B11F0804F18BFA4
:100BE00000F8012B704770477047704710B500F050
:100BF000A1F8083010BD704770477047704738B58E
:100C000004460A4600206946AFF30080002808BF6A
:100C100038BD02460099204600F092F8012038BD08
:100C2000012000F06FBAF8B5AFF300800546002050
:100C30000C46102000BF0646A819A0420DD9324626
:100C400069460020AFF30080070008BF00F05AFAA1
:100C50000098A04218BF0546C419FFF7C7FF0560FA
:100C60000746F01D20F007004619284600F00AF854
:100C7000B44208BFF8BDA21B31463868BDE8F84051
:100C800000F05EB800210160C0E901100C309CF05A
:100C9000F8BE1020704710B500F050F8006810BD85
:100CA00010B5044600F04AF8046010BD3A2800D29E
:100CB000303820F02002412A01D3A2F137008842C7
:100CC00001D34FF0FF307047026811441378016080
:100CD00018467047D1600549794451610449794407
:100CE000116200211161114600F052B8EDFFFFFFC3
:100CF0009D000000426842B1016811F8013B23B138
:100D0000521EC0E90012184670470121C160881EBA
:100D1000704742685AB1C368016843B983688B421F
:100D200005D0491E521CC0E90012002070474FF048
:100D3000FF3070470048704794E900209CF064BE83
:100D400030B404468C464368002B18BF634538BF57
:100D50001846F8D303681844604507D0C81C20F033
:100D6000070000F1040CACEB0100121A2146CCF88C
:100D7000002030BC00220CF10400FFF704BC10B5C9
:100D8000044600F0EDF90068005D00F0010010BDC0
:100D90002DE9F34F4FF0000A0C4656468DB0012066
:100DA0000C9001F10C000B9062690B9801219047A7
:100DB000051E2DD0252D2CD0216A8847C0B162692F
:100DC0000B9801219047216A88470028F7D1626972
:100DD000411E0B98904700E0761CA1690D9888474A
:100DE000216A88470028F7D1E1690D988847DBE739
:100DF000A1690D988847A842074601D1761CD3E720
:100E0000E1690D9888477F1C02D1BAF1000F6FD0BD
:100E10006BE162690B9800273D46394690472A28C6
:100E200004D162690B98012190470125DFF8D08237
:100E300062690B9801219047A0F130010A290AD27A
:100E40004745E5DC07EB870100EB4107303FDFD486
:100E500045F01005ECE7E90601D46FF000476C2877
:100E60000AD04C2814D0682815D06A280DD07428D0
:100E70001CD07A281AD01DE062690B980121904796
:100E80006C2802D045F0040514E045F002050DE0A1
:100E900045F020050AE062690B9801219047682817
:100EA00002D045F0080505E045F4006562690B983D
:100EB00001219047C4E9015765283DD019DC582825
:100EC0007AD00CDC452837D004DC252826D04128F0
:100ED0009ED131E046282FD0472899D12CE05B28BD
:100EE00077D0612828D063287CD0642823D15AE0A9
:100EF000F6E06F2848D008DC66281DD067281BD094
:100F0000692821D06E2816D127E0702845D0732893
:100F100068D0752847D078280DD14DE0A1690D988B
:100F20008847252805463FF469AFE1690D98884751
:100F30006D1C3FF46AAFD8E00D9923466A466FF006
:100F40000100AFF30080C5E045F0400023464FF0BC
:100F500000026060A80736D43EE0E8077FF447AFA0
:100F60002068011D21600068290501D506701BE776
:100F7000290701D5068017E7A90703D5F117C0E9AE
:100F8000006111E706600FE745F0400023464FF08F
:100F900008026060A80716D41EE040F60E0125EA9C
:100FA0000100606016E045F0400023464FF00A0261
:100FB0006060A80707D40FE045F040006060A80714
:100FC00008D5234610220D996FF00100AFF3008081
:100FD00080E007E0102223460D996FF00100FFF733
:100FE000FFFB77E04FF0000963284F46C8464B46A9
:100FF000CB4602D05B2806D038E0E80601D40120B9
:10100000A060012732E06269D4F80CB00B9801218E
:1010100090475E2807D14FF0010949466269D4F82C
:101020000CB00B989047216939B900210A4603ABEF
:1010300043F82120491C0829FADBD8B3216949B3B8
:1010400008F1010862690B98012190475D28F4D1ED
:10105000B9F1000F09D0002003A951F82020D24394
:1010600041F82020401C0828F7DB03AB206900284A
:1010700020794FEA40701ED05B462246CDF80080B2
:10108000CDE901970D9900286FF0010020DAAFF348
:1010900000801FE0C11703AA00EBD1614B1121F0C2
:1010A0001F0102EB8302411A1368012088400343A9
:1010B0001360C7E719E00D99224600286FF0010080
:1010C000009702DAAFF3008004E0AFF3008001E0A4
:1010D000AFF3008000280ADA401C06D10C9820B13A
:1010E0004FF0FF300FB0BDE8F08F5046FAE7E90748
:1010F00001D10AF1010A064400200C9054E60000D8
:10110000CCCCCC0C10B500F049F8BDE8104000F094
:1011100040B870477546FFF70DFEAE4605006946BC
:10112000534620F00700854618B020B5FFF768F950
:10113000BDE820404FF000064FF000074FF00008D8
:101140004FF0000B21F00701AC46ACE8C009ACE859
:10115000C009ACE8C009ACE8C0098D467047000082
:1011600010B500F049F8001D10BD00BFC50B0A0006
:1011700010B5FFF73BFD0068BDE8104000F041B836
:1011800010B50446AFF300802046BDE81040FFF7DD
:1011900001B9002801D000F029B8704710B5012826
:1011A00005D0002103A000F031F8012010BD09A1F5
:1011B000F8E7000053494752544D454D3A204F75CA
:1011C00074206F662068656170206D656D6F72793F
:1011D000000000003A2048656170206D656D6F72F7
:1011E0007920636F7272757074656400014918200C
:1011F000ABBEFEE72600020010B5FFF79BFD2030D6
:1012000010BD10B50C309CF036FC10BD70B5054615
:101210000C460A2000E06D1C00F011F835B128786A
:101220000028F8D102E0641C00F009F814B120781D
:101230000028F8D1BDE870400A20AFF3008008B55F
:1012400069468DF800000320ABBE08BD4FF0013C9D
:1012500050F8042B51F8043B9A4215D1A2EB0C0331
:10126000934313EACC130BD150F8042B51F8043BF1
:101270009A4209D1A2EB0C03934313EACC13E7D0B3
:101280004FF00000704700BFD01A01BAB1FA81F1E7
:1012900001F0180122FA01F0CB40C1F12001DBB2CC
:1012A000C0B2C01A2CFA01F3D11A914311EAC3114A
:1012B000E6D1704710B500F1280151E8002F12B9AE
:1012C000BFF32F8F04E0531E41E8003404B1F4E76C
:1012D00082B12C3001210AE0821CD2E84F3FC2E8E3
:1012E000441F04B1F9E71A0608BF10BD08300068B2
:1012F0000028F1D1002010BD10B584465CF8303FC5
:101300008BB1CA784FF0000E05E01C46DB789342A3
:101310000ED26368A646002BF7D10022C1E9012E48
:1013200000F12C0208E00022C1E90122C16209E0BB
:10133000C1E9014E04F108021160BEF1000F18BFAF
:101340000EF1040CCCF80010283050E8001F4A1CA5
:1013500040E8002303B1F8E710BDD1E90123002ADA
:101360000EBFC36293608B68191D002B08BF00F18C
:1013700030010A607047000001480068704700BFF4
:1013800010E000E007480178012905D10021017033
:1013900005484FF0806101600448016841F0010197
:1013A00001607047F4E9002004ED00E010E000E087
:1013B0004FF0FF307047000040B10B490968B1FBA6
:1013C000F0F0411E0020B0EB116F02D04FF0FF3063
:1013D0007047064AFF231370054A062313605160C5
:1013E00004499060087070476C5D002023ED00E0B8
:1013F00010E000E0F4E9002010B5930712D400F1EA
:101400002803D00718D153E8000F084203D1BFF3D7
:101410002F8F002005E020EA010243E8002404B1F8
:10142000F1E710BD806AD20700EA010315D1002B55
:1014300018BF10BD002010BD53E8000F00EA0102E4
:101440008A4203D0BFF32F8F002005E020EA01027B
:1014500043E8002404B1EFE710BD8B4218BF002021
:1014600010BD000080B5124A4FF0000E02F1440C8E
:10147000624606E01A6991420BD3891A03F10C0205
:101480009E461368002BF5D10022C0E902E20161FB
:1014900006E0C0E902E3016198601A69511A196116
:1014A000BEF1000F18BF0EF10C0CCCF8000080BD8F
:1014B0007C6F0020C16829B102690B691A440A6176
:1014C00082688A608068044A00F10C03002808BF23
:1014D00002F14403196070477C6F0020EFF305812F
:1014E00029B9EFF3108111B9EFF3118111B16FF048
:1014F00005007047DFF804C000DF7047912404083E
:10150000EFF3058048B9EFF3108030B9EFF31180A5
:1015100018B9EFF31480C00702D10448007A70476D
:10152000DFF804C000DF7047A52404087C6F0020AA
:10153000EFF3058028B9EFF3108010B9EFF31180B5
:1015400010B10348C0687047DFF808C000DF70477B
:101550007C6F0020B124040880B500F0A9F9EFF3F6
:10156000058028B9EFF3108010B9EFF3118010B1A6
:101570006FF0050080BDDFF808C000DF80BD00BF50
:10158000BD240408EFF3058028B9EFF3108010B9EB
:10159000EFF3118010B16FF005007047DFF804C061
:1015A00000DF70471126040810B5EFF3058232B949
:1015B000EFF310821AB9EFF31182002A21D000282C
:1015C0001CD0002200291AD10178F72917D100F187
:1015D000200151E8002F12B9BFF32F8F04E01368E8
:1015E00041E8003404B1F4E742B1103050E8001F84
:1015F0004B1C40E8003404B1F8E700E0002210463C
:1016000010BDDFF808C000DF0246F8E7992604089D
:1016100010B50446EFF3058028B9EFF3108010B938
:10162000EFF3118088B144B12078F72805D104F197
:101630000C0000F0DFF918B110BD6FF0030010BD11
:10164000204600F00DFB002010BD2046DFF804C04E
:1016500000DF10BDF5260408EFF3058129B9EFF38B
:10166000108111B9EFF3118109B101F075B8DFF8FC
:1016700008C000DF704700BF59270408EFF3058357
:101680002BB9EFF3108313B9EFF311830BB10020E3
:101690007047DFF808C000DF704700BF6D270408FF
:1016A000F8B50546EFF3058014460E4628B9EFF36A
:1016B000108010B9EFF31180F0B16FF003000DB39B
:1016C00003BBFEB12978FA291CD12846FFF7F2FDA9
:1016D00078B16A6A074600F10C013046FFF7BBF9A2
:1016E0000CB1F87820703846FD6000F0B9FA00209F
:1016F00008E06FF0020005E02846DFF80CC0314634
:10170000224600DF01B0F0BDB9280408EFF30581DF
:1017100029B9EFF3108111B9EFF3118139B120B17B
:101720000178FA2904BF806A704700207047DFF80B
:1017300008C000DF704700BF99290408EFF3058156
:1017400029B9EFF3108111B9EFF3118109B101F05B
:101750002BB9DFF808C000DF704700BFA9290408D3
:10176000EFF305832BB9EFF3108313B9EFF3118374
:101770000BB100207047DFF808C000DF704700BFE2
:10178000BD2904082DE9F0410646EFF30580904697
:101790000D4628B9EFF3108010B9EFF3118018B39C
:1017A0006FF00307EEB1E3B9DDB13078FA2818D154
:1017B00006F10C0000F001F988B1726A04460C30A1
:1017C0002946FFF748F90027F920C4E9015684F8B3
:1017D0000380A7702070204600F042FA01E06FF00D
:1017E00002073846BDE8F0813046DFF80CC02946D4
:1017F000424600DFBDE8F081F12A0408EFF30581DD
:1018000029B9EFF3108111B9EFF3118111B16FF024
:1018100005007047DFF804C000DF7047B12B0408F3
:10182000EFF305822AB9EFF3108212B9EFF31182B8
:1018300012B16FF005007047DFF804C000DF704799
:10184000612C0408EFF3058129B9EFF3108111B978
:10185000EFF3118111B16FF005007047DFF804C09C
:1018600000DF7047F12C0408EFF3058129B9EFF38D
:10187000108111B9EFF3118109B100207047DFF831
:1018800008C000DF704700BFB52D0408EFF30581E5
:1018900029B9EFF3108111B9EFF3118111B16FF094
:1018A00005007047DFF804C000DF7047212E0408F0
:1018B0007047B0B50023D0B3C9B3032A37D88646E2
:1018C0000F315EF8084F21F0070CDEF804102346B4
:1018D000A4EB0E0421F00305641B644505D21C68CB
:1018E0009E46002CF1D1002321E0D0E9004363445F
:1018F0004360204450F8044C9C423EBF083843608B
:10190000DEF8041069B1DEF8000021F0030141F8AF
:101910000E004CEA020071444860CEF800108E467A
:1019200003E04CEA0200CEF804000EF1080318466A
:10193000B0BD80B5002218B311B300F10803A1F1C6
:10194000080C4FF0000E634506D01A461B689646F9
:10195000002BF8D1002213E051F8043C4268BEF19C
:10196000000F23F00303A2EB030242604FF00102D9
:1019700019BFDCF80000CEF80000002041F8040C8C
:10198000104680BD08B1420702D0002210467047C1
:1019900000221829FAD311F00703F7D11022C0E969
:1019A00000120144A1F108038360002341F8083CC0
:1019B00081684A600122C360E8E710B5002817D0AB
:1019C000014600F1140252E8000F10B9BFF32F8F47
:1019D00004E0036842E8003404B1F4E740B10431A4
:1019E00051E8002F531C41E8003404B1F8E710BD62
:1019F000002010BD00281FD0C2688A421CD802698E
:101A00008A4219D9B0B500F1140213680B60BFF314
:101A10005F8F52E8003F0C689C42F6D142E8001507
:101A200005B1F2E7043050E8001F4A1E40E80023E9
:101A300003B1F8E70020B0BD6FF0030070478446A3
:101A40000020BCF1000F18BF00291AD0CAB1C3B1E1
:101A500080B54FF0000E02FB0130CCE9001ECCE94E
:101A60000223CCE90403C1F10100BDE8804003E09A
:101A70009918013019600B460028F9D10020186030
:101A800001207047B0B5816800291ED000F1200107
:101A900051E8004F14B9BFF32F8F04E0226841E8EA
:101AA000002303B1F4E784B100F1100151E8002FE5
:101AB000531C41E8003505B1F8E700F019FA21465A
:101AC0000022BDE8B04000F0D3BAB0BDF8B504467E
:101AD000807868B3E56821462846FFF73EFC002081
:101AE00005F10C06214620703046FFF783FFA868F9
:101AF000E8B13046FFF761FFC8B10446284600F060
:101B0000F7F9002100220646002700F0B1FA30461E
:101B100000F04AFA81686A6A064604F10C00FEF792
:101B20009AFFF920A7702070F068E07025E0F8BDFA
:101B3000A568A86808B3407883281ED1284600F01D
:101B4000D7F9002100220646002700F091FA30461E
:101B500000F02AFA064680686A6A04F10C01FEF772
:101B60007AFFF06808B1E1780170277005F10C0088
:101B70002146BDE8F840FFF73DBF28462146BDE8B5
:101B8000F840FFF7B9BB2DE9F041044600274FF0BC
:101B9000010819E025466469E878000714D52F7616
:101BA000A86888B1284600F0A3F900210022064663
:101BB00000F05EFAC5E90367F06A0028686100D0AA
:101BC0000561F56285F81880002CE3D1BDE8F0814D
:101BD00070B5224C04F1560504F15A0628E0D6E807
:101BE0005F1F4A1C904200D80022C6E8532F03B161
:101BF000F5E788B2E16D51F82000002828D001787F
:101C0000F139082914D8DFE801F005130813130B84
:101C10000E131100216E88470AE0616E884707E0C5
:101C2000A16E884704E0E16E884701E0216F884794
:101C3000B4F85400D5E85F1F11B9BFF32F8F04E04B
:101C40004A1EC5E8532F03B1F4E709047FF4C7AF78
:101C50000020BDE8704000F0F1B800BF7C6F0020AC
:101C600070B501461948B0F8542000F15603D3E886
:101C70005F4FA24202D8BFF32F8F04E0651CC3E878
:101C8000565F06B1F3E7A3B293421AD200F15803AC
:101C9000D3E85F4F651CAA4200D80025C3E8565F11
:101CA00006B1F5E7A2B2C36D43F82210417A0029CC
:101CB00019BF0121817206484FF0805108BF0160B1
:101CC00070BD0220BDE870409FF0D6B97C6F002047
:101CD00004ED00E010B58168B1B100F10C01D1E86C
:101CE0005F2F12B9BFF32F8F04E0531EC1E8543F9A
:101CF00004B1F4E7110407D000F0FAF80021002243
:101D0000BDE8104000F0B4B910BD000001214170E1
:101D10000B4990F920C001F11C02114692684AB1AA
:101D200092F920306345F8DCC0E90221886002F1B5
:101D30000C0103E00022C0E902210831086070476D
:101D40007C6F002010B54A1C11D01F4A002402F1FC
:101D50002C0C624603E0891A03F110021C4613683A
:101D6000E3B1DA699142F6D24FF0010E18E016495C
:101D7000002301F1300421461A460B6803F11001DB
:101D8000002BF9D14FF0FF31002AC1614FF0000163
:101D9000C0E9041216D002F1100413E04FF0000E57
:101DA000002CC0E90434C16118BF04F1100CCCF858
:101DB0000000BEF1000F08BF10BDDA6903F1140482
:101DC000511AD961206010BD7C6F0020C269016981
:101DD000531C0AD021B1CB691A44CA6142694A61D5
:101DE00042693AB90748C162704709B142694A611C
:101DF00042691AB1116100214161704701480163D4
:101E0000704700BF7C6F0020B0B50B4DEC6A1CB171
:101E1000E0690138E06100D0B0BD204600F087F8ED
:101E2000204600F0B7F8246924B1E0690028F4D016
:101E300000206061EC62B0BD7C6F0020B0B505464B
:101E40001448002D4469017A0CD0022905D194F977
:101E5000200095F92010814212DC2846BDE8B040F0
:101E600000F098B8022913D1456A8DB194F9200089
:101E700095F920108142D8BFB0BD284600F057F830
:101E80002046FFF743FF2846BDE8B04000F0CAB83F
:101E9000B0BD00BF7C6F002010B50446002020803C
:101EA000A07881070DD5C00605D41048216B406F7E
:101EB000FFF73FFD05E00D48216BD0F88400FFF7E8
:101EC00099FDA078C00708BF10BD0849D1F8880067
:101ED00020B12146BDE81040FFF78CBDD1F880004D
:101EE0002146BDE81040FFF724BD00BF7C6F0020F5
:101EF000014680688268002A8A6000D0D160002193
:101F0000C160704791F920C00246806840B190F9E5
:101F100020306345F8DAC1E902020C30916004E038
:101F20000020C1E9020202F1080001607047C168A7
:101F300031B182688A60826802B1D1600021C160DB
:101F40007047B0B50446054603E02878F12803D170
:101F5000ED68002DF9D1B0BD2046FFF7E8FF284617
:101F60002146BDE8B040FFF7CDBF10B5044640782C
:101F7000332818BF10BD94F82320616A2046FFF76C
:101F80003BFA30B1014620460022BDE8104000F087
:101F90006FB810BD01460120487002481C30FFF7A1
:101FA000B1BF00BF7C6F002090F82210C9064FF02F
:101FB000200158BF6021806B084470470748416981
:101FC00039B1086B8A6B824204D90068044A904296
:101FD00000D1704701209FF04FB800BF7C6F0020F8
:101FE000A52E5AE270B50B4C0B480021A26D666E0F
:101FF00001F0FEF8094D002EA86209D0E26D0848F4
:10200000002101F0F5F8A864002818BF012070BD78
:10201000012070BD30580E08A1100E087C6F002002
:10202000152104080221417001498861FFF7C6BFEC
:102030007C6F002010B50D4C02460020237A022B45
:1020400012D1636A83B160694270FFF77BFE606AF8
:1020500081680029616202D004F11C02CA6000217B
:10206000C160FFF7DFFF012010BD00BF7C6F0020C3
:10207000B0B5044690F822001546C0064FF0200087
:1020800058BF6020A26B81502046FFF79FFE20467C
:102090001DB1BDE8B040FFF7D1BEBDE8B040FFF7CD
:1020A00079BF0000B0B5FFF767F9194DE968286DF1
:1020B00001310028E96000D08047FFF7A5FE00202D
:1020C000FFF7BCFE296C11B3AA69A86B90421CBF34
:1020D000C5E90E21B0BDE96B11B10139E96316D133
:1020E000297A022913D16C6A8CB190F8200094F8F7
:1020F000201081420BD12046FFF719FFA86BFFF794
:1021000049FF2046FFF78EFF286CC5E90E40B0BDA1
:102110007C6F002082B00B480821D0E91820FFF71F
:102120001FFB094D09496C46C5E9130121460022F0
:102130004FF0FF33FFF7B4FA10B9DDE9001088471C
:10214000E86CF3E730580E087C6F0020512104083A
:1021500070B5144D6C6C1CB32069012601382061E8
:102160001CE02069E0B9E06808B1A168816068649A
:1021700004F1180100220023E86CFFF703FB18B1FB
:10218000032021469EF078FFE078012804D16169A0
:102190002046FFF767F900E066706C6C002CE0D118
:1021A00070BD00BF7C6F0020EFF305822AB9EFF30A
:1021B000108212B9EFF31182CAB16FF00302A0B11D
:1021C00099B90178F62910D10C30D0E85F1F11B908
:1021D000BFF32F8F04E04A1EC0E8532F03B1F4E78A
:1021E0000022080408BF6FF0020210467047DFF8B3
:1021F00008C000DF704700BFD92E0408EFF3058147
:1022000029B9EFF3108111B9EFF3118111B16FF01A
:1022100005007047DFF804C000DF7047312F040865
:10222000EFF3058129B9EFF3108111B9EFF31181B3
:1022300039B120B10178F62904BF808970470020A8
:102240007047DFF808C000DF704700BF912F040817
:10225000EFF305832BB9EFF3108313B9EFF3118379
:102260000BB100207047DFF808C000DF704700BFE7
:10227000A12F0408EFF3058129B9EFF3108111B9FB
:10228000EFF3118109B3B0B5E0B10178F62919D1A6
:10229000C18900F10C02D2E85F3F994202D8BFF336
:1022A0002F8F04E05C1CC2E8554F05B1F3E7C289EB
:1022B00099B2914224BF6FF00200B0BDFFF7D0FC8D
:1022C0000020B0BD6FF00300B0BDDFF808C000DF34
:1022D000704700BF21300408DFF804C000DFFEE7CC
:1022E00075300408EFF3058129B9EFF3108111B9B6
:1022F000EFF3118111B16FF005007047DFF804C0F2
:1023000000DF7047E5300408EFF305822AB9EFF3E8
:10231000108212B9EFF31182E2B1B0B56FF003048D
:10232000B0B1002914DB0278F12A11D14278042AD5
:1023300002D16FF002040BE000F1280252E8003FE6
:1023400043EA010442E8004505B1F7E7FFF788FCDE
:102350002046B0BDDFF804C000DF70471931040823
:10236000EFF305832BB9EFF3108313B9EFF3118368
:1023700013B16FF005007047DFF804C000DF70474D
:1023800081310408EFF3058028B9EFF3108010B90C
:10239000EFF3118010B1034840697047DFF808C0BF
:1023A00000DF70477C6F0020CD310408EFF305811A
:1023B00029B9EFF3108111B9EFF3118111B14FF089
:1023C000FF307047DFF804C000DF7047D9310408E0
:1023D000EFF305832BB9EFF3108313B9EFF31183F8
:1023E0000BB100207047DFF808C000DF704700BF66
:1023F000F1310408EFF3058129B9EFF3108111B928
:10240000EFF3118111B16FF005007047DFF804C0E0
:1024100000DF7047CD330408EFF3058028B9EFF3F0
:10242000108010B9EFF3118010B16FF00500704704
:10243000DFF804C000DF70478D340408EFF3058C2B
:10244000BCF1000F09D1EFF3108CBCF1000F04D1E7
:10245000EFF3118CBCF1000F01D000207047DFF8C2
:1024600008C000DF704700BFC5340408EFF30582E1
:102470002AB9EFF3108212B9EFF3118212B16FF0A3
:1024800005007047DFF804C000DF704741350408DD
:1024900030B180B501461320FFF7CCFDBDE8804088
:1024A000002070470148007A704700BF7C6F002011
:1024B0000148C068704700BF7C6F00202DE9F843D9
:1024C000504F387A012800F09580002840F0948021
:1024D00007F108009C21FEF75FFBDFF82C81B8F8BC
:1024E0001000A7F85400D8E90202D8E90B41FA65B8
:1024F00038642046FFF746FA08B1C7F88040D8E9AB
:102500000541DFF80891D8E907562046C847D7F8B3
:1025100080100028284618BF214679673146C847F1
:10252000D7F88010002818BF2946B967D8E90941B3
:102530002046C847D7F88010002818BF2146D8F891
:102540003440F9673CB12168D4E902232046FFF703
:1025500076FAC7F88440D8F838403CB12168D4E90D
:1025600002232046FFF76BFAC7F88840D8F83C40B2
:102570003CB12168D4E902232046FFF760FAC7F88E
:102580008C40D8F840403CB12168D4E90223204671
:10259000FFF755FAC7F89040D8F844403CB121689D
:1025A000D4E902232046FFF74AFAC7F89440D8F846
:1025B00048403CB12168D4E902232046FFF73FFAA6
:1025C000C7F89840D8F84C403CB12168D4E90223C0
:1025D0002046FFF734FAC7F89C40D8F850403CB189
:1025E0002168D4E902232046FFF729FAC7F8A04062
:1025F00001203872002001E04FF0FF3001B0BDE84B
:10260000F08300BF7C6F002030580E088519040845
:10261000B0B51D4C207A01281CD1FFF7E3FCC8B1EE
:102620001A48FF211A4D8175817D026881F0FF01F2
:10263000C2F30222B1FA81F1C1F120018A4228BF1E
:10264000511CFE2202FA01F1C17468681149FEF7BB
:10265000B3FE10B14FF0FF30B0BDFEF7A9FE206110
:10266000FEF790FE04F11C00FFF742FCFFF7DAFCD6
:102670002878C0070CBF0320022080F314880220B2
:1026800020720020B0BD00BF7C6F00200CED00E088
:1026900030580E08CD040408B0B5002825D00446F3
:1026A0000078F72821D104F1200252E8000F10B978
:1026B000BFF32F8F04E0036842E8003505B1F4E76B
:1026C00048B104F1100151E8002F531C41E80034D7
:1026D00004B1F8E7B0BD41B17320FFF7ABFC20B106
:1026E000034841692046FFF70DFC0020B0BD00BF44
:1026F0007C6F0020B0B548B104460078F72805D1BA
:1027000004F10C00FFF776F918B1B0BD6FF00300CB
:10271000B0BDA06800281DD004F1200050E8005F83
:1027200015B9BFF32F8F04E0296840E8001202B109
:10273000F4E77DB104F1100050E8001F4A1C40E8A6
:10274000002303B1F8E72046FFF7D2FB2946012218
:10275000FFF78EFC0020B0BD30B10178F72902BF31
:10276000D0E90310081A7047002070472DE9F84F90
:10277000002760B159B103310446B0FA80F021F06E
:102780000305B5FA85F10844202804D2002738460D
:1027900001B0BDE8F08F05FB04F862B19668D2F88D
:1027A00000A0D2E90490002E25D0B107EED1D16867
:1027B0002429EBD322E04FF0000A4FF000093C49F6
:1027C000D1F89C00002823D000F1140151E8006FDB
:1027D00016B9BFF32F8F04E0326841E8002303B13C
:1027E000F4E7EEB1043050E8001F4A1C40E8002333
:1027F00003B1F8E715E0D1680029C7D1B9F1000F9E
:102800002FD000274045C2D319F003002CD0BEE7DB
:10281000D1F8800024210122FFF74BF8064600E0A2
:1028200000264FF0010BB9F1000F0ED16EB1204F11
:1028300041460022B86FFFF73CF8814638B1484660
:102840004146FEF787F937461AE037461AE0BBF1F2
:10285000000F14D0D7F89C0060B13146FFF7CAF8DA
:102860000DE000287FF492AF002E3FF4A8AF4FF0A8
:10287000000BD8E7D7F880003146FFF75AF8002759
:102880000BF1020B002F3FF482AF002021462A46B5
:102890004B46C7E901A0F72087F802B0387007F16E
:1028A0000C00FFF7CCF802480249C1666FE700BF91
:1028B0007C6F0020851A04082DE9F84300284CD0CD
:1028C0000F466FF00305002949D004460078FA2826
:1028D00045D1204699469046FEF7ECFC002842D0B0
:1028E000064620463146FEF738FD626A06F10C01C5
:1028F0003846FEF7B0F8B8F1000F1CBFF07888F842
:10290000000004F10C070025314638463570FFF70A
:1029100071F8A06818B33846FFF74FF80025F0B1FA
:1029200006462046FFF7E4FA002101220746FFF79A
:102930009FFB3846FFF738FB8168626A074606F15D
:102940000C00FEF788F8F920B57031463070F86851
:10295000F0702046FEF7D0FC01E06FF0030528463A
:1029600001B0BDE8F083B9F1000F10D083204946D3
:10297000FFF760FB40B1074841692046FFF7C2FA04
:10298000EFF30980C0E902786FF00105E7E76FF027
:102990000205E4E77C6F002020B10178FA2904BF2A
:1029A000806A70470020704730B10178FA2903D15E
:1029B000C168806A081A7047002070472DE9F84FF7
:1029C000002770B10D4661B105F10F010446B0FA60
:1029D00080F021F00306B6FA86F10844202804D2DC
:1029E0000027384601B0BDE8F08F06FB04F872B14D
:1029F000D2F808A01368D2E90490BAF1000F11D000
:102A00005FEA8A71ECD1D1683429E9D30DE0002363
:102A10004FF0000934490093D1F8A00078B1FEF7D7
:102A2000CCFF12E0D1680029DAD1B9F1000F2FD024
:102A300000274045D5D319F003002BD0D1E7D1F8BA
:102A4000800034210122FEF734FF82464FF0010B53
:102A5000B9F1000F10D1BAF1000F0DD0224F41464D
:102A60000022F86FFEF725FF814638B148464146FF
:102A7000FEF770F857461AE057461AE0BBF1000F10
:102A800014D0D7F8A00060B15146FEF7B3FF0DE0B7
:102A90000028A5D1BAF1000FBCD000934FF0000B75
:102AA000D6E7D7F880005146FEF743FF00270BF129
:102AB000020B002F3FF495AF002032464B46C7E98A
:102AC0000950C7E90B000099C7E90110FA2087F8FF
:102AD00002B02146387007F10C00FEF7B0FF024843
:102AE000024901677DE700BF7C6F0020CD1A040812
:102AF0002DE9F84338B30E466FF00307002951D093
:102B000005460078FA284DD1A86899469046E8B164
:102B1000407883281AD12846FFF7EAF900210122DC
:102B200004460027FFF7A4FA2046FFF73DFA0446C3
:102B300080686A6A3146FDF78EFFE06890B380F8DE
:102B4000008000272EE06FF003072BE005F10C005A
:102B5000FEF733FF80B16A6A04460C303146FDF758
:102B60007AFF0027F92084F803802146A77020709F
:102B70002846FEF7C1FB15E0B9F1000F10D09320F5
:102B80004946FFF757FA40B1084841692846FFF720
:102B9000B9F9EFF30980C0E902686FF0010701E0BD
:102BA0006FF00207384601B0BDE8F0837C6F00206B
:102BB0002DE9F843002849D004460078FA2845D189
:102BC00004F10C05002709E0064620463146FEF7D1
:102BD000C4FB284631463770FEF70CFF2046FEF74F
:102BE00069FB0028F0D1A068B0B340784FF000082E
:102BF00093282DD14FF0F9092846FEF7DEFEF8B1F3
:102C000007462046FFF774F9002100220646FFF729
:102C10002FFA3046FFF7C8F98168626A064607F165
:102C20000C00FDF718FF87F8028087F800903946FE
:102C3000F068F8702046FEF75FFBA0680028DBD143
:102C400000204FF00008FFF7F9F801E06FF00308EB
:102C5000404601B0BDE8F0834FF00008F8E70000FF
:102C600070B50446214845694DB32CB32078F5284A
:102C700022D1207E30B30E46E178CA0702D0E26846
:102C8000AA422CD07EB388070AD5E06895F92010B7
:102C900090F920208A4203DA80F82010FFF751F9DA
:102CA00053203146FFF7C6F918B120462946FFF7F1
:102CB00029F96FF0010070BD6FF0030070BD4FF097
:102CC000FF3070BD0020C4E90350E86A002860614D
:102CD00000D00461EC6201202076002070BDFF2846
:102CE00001D00130F8E76FF0020070BD7C6F00206A
:102CF00010B5002852D004460078F5284ED1207E29
:102D0000F0B3D4F814C0E068BCF1000F1CBF226916
:102D1000CCF8102000F12C0321691A46002918BFB5
:102D200001F11402C2F800C0E178890722D590F8B9
:102D300021C00BE093683BB193F920304FFA8CF13E
:102D40008B42C8BF5FFA83FC02F114031A68002AA1
:102D5000F0D190F8201061450CD080F820C0FFF72A
:102D6000F0F807E02046FFF7C3F86FF002010022F9
:102D7000FFF77EF9A0680028F4D10020FFF75EF885
:102D800000202070A178C90708BF10BD0849D1F8FC
:102D9000940030B12146FEF72DFE07E06FF00300EE
:102DA00010BDD1F880002146FEF7C3FD002010BD04
:102DB0007C6F002070B558B1D0E90065846884B19B
:102DC000A10711D1C16800201C2938BF70BD16E0D1
:102DD000002500261149D1F8940038B1FEF7EDFD29
:102DE0000AE0C0680028F5D0002070BDD1F880004E
:102DF0001C210122FEF75DFD044658B101206660EA
:102E0000E570A070F5201121207004F10800FDF795
:102E1000C3FE00E00024204670BD00BF7C6F002090
:102E200070B504462B48406970B154B12178F5293A
:102E300007D1217E11B1E268824209D06FF002040D
:102E400004E06FF0030401E04FF0FF34204670BD52
:102E500001392176090601D00024F7E7616909B13B
:102E600022690A6100F12C0523692A46002B18BF4C
:102E700003F114021160E178890711D590F821104F
:102E800009E093682BB193F920304DB2AB42C8BF33
:102E9000194602F114052A68002AF2D180F82010A0
:102EA000A06890B12046FFF723F8002100220546D4
:102EB0000026FFF7DDF8C4E90356E86A00286061E0
:102EC00000D004610120EC62207600200024FEF78F
:102ED000B5FFBBE77C6F0020B0B508B304460078AF
:102EE000F6281DD104F10C00D0E85F2F12B9BFF312
:102EF0002F8F04E0531EC0E8553F05B1F4E71004DE
:102F00001CBF0020B0BD71B16320FFF793F820B162
:102F1000064841692046FEF7F5FF6FF00100B0BD9D
:102F20006FF00300B0BD6FF00200B0BD7C6F0020F9
:102F300010B508B304460078F6281DD1A06868B122
:102F40002046FEF7D5FF6FF002010022FFF790F850
:102F5000A0680028F4D10020FEF770FF0020207048
:102F6000A178C90708BF10BD0849D1F8980030B151
:102F70002146FEF73FFD07E06FF0030010BDD1F8DA
:102F800080002146FEF7D5FC002010BD7C6F00209C
:102F900020B10178F62904BF80897047002070476E
:102FA00070B5054601384FF6FE730C460021984275
:102FB00098BFAC4201D9084670BD4AB19068166806
:102FC00070B181070FD1D2680021102AF3D314E029
:102FD00000261149D1F8980038B1FEF7EEFC0AE05E
:102FE000D0680028F5D00021E5E7D1F88000102155
:102FF0000122FEF75EFC60B101210022C5818481BF
:10300000C0E901628170F621044A017002498A66B2
:1030100000E000200146CEE77C6F0020D51C0408AC
:10302000B0B560B10178F62909D1816859B1FEF7D0
:103030005FFF002101220024FFF71AF801E06FF082
:1030400003042046B0BDC18900F10C02D2E85F3F05
:10305000994202D8BFF32F8F04E05C1CC2E8554FA1
:1030600005B1F3E7C28999B26FF00200914238BF0F
:103070000020B0BD70B51A4D287A02282ED1686A9A
:10308000002808BF70BD6C69E06AFEF77CFDA0698E
:1030900018B100210022FEF7EBFFEFF30980A063D7
:1030A000686A81680029696202D005F11C02CA6061
:1030B0000026C660FEF7B6FF6E61E078C00704D157
:1030C0002046BDE87040FEF7E7BE0420E660607071
:1030D000686B0028A06000D0C4606C6370BD00BF46
:1030E0007C6F002001460B48406968B100290EDB67
:1030F00010B500F1280252E8000F20EA010342E86F
:10310000003404B1F7E710BD4FF0FF3070476FF0A7
:10311000030070477C6F0020B0B56FF0030460B30C
:1031200000292ADB05460078F12826D16878042892
:1031300002D16FF0020420E005F1280050E8002FD2
:1031400042EA010440E8004303B1F7E76878332816
:1031500013D195F82320696A2846FEF74DF960B12E
:10316000014695F8230001220C4680075CBF686A7F
:1031700021EA00042846FEF77BFF2046B0BD000090
:10318000F8B5054610484769A7B1002D15DB0E4676
:103190001446384629463246FEF72EF990B97CB1DE
:1031A0003320214687F823607D62FEF743FF6FF0EE
:1031B000010007E04FF0FF3004E06FF0030001E092
:1031C0006FF0020001B0F0BD7C6F00200148406943
:1031D000704700BF7C6F002030B10178F12902BF39
:1031E000407800F00F0070474FF0FF30704700004C
:1031F0002DE9FE4F10B380466AB102F1100A9AE839
:103200008006D2E900439668B6B1B00716D1D068FF
:10321000442813D317E04FF0180A002300274FF07B
:1032200000090024644A0293D2F88800CDE9001412
:10323000C8B1FEF7C2FB1CE0D06820B100252846CB
:1032400003B0BDE8F08F37B10025B9F1000FF6D01B
:1032500017F00700F3D1BAF1000F38D0AAF101003E
:103260003728EBD835E0D2F8800044210122FEF760
:1032700020FB06464FF0010B67B95EB1B9F1000FB4
:103280000AD04D4849460022406FFEF712FB98B124
:1032900007460FE035463EE047484849D0F88400ED
:1032A000D1F854900028ECD0FEF787FB20B10746F8
:1032B0000BF1100B35462CE0BBF1000F1CD03E4942
:1032C000D1F88800E0B13146FEF794FB1DE04FF0E5
:1032D000180AB9F1000F06D00025B9F1480FAED396
:1032E00019F00700ABD1002E3FF49CAFCDE90014DC
:1032F00002934FF0000BBFE74FF0000B002707E0F1
:10330000D1F880003146FEF714FB00274FF0010B87
:1033100000254BF0020B002D3FF491AF01981821CE
:1033200068600298E87040F2F11085F802B02880D9
:1033300005F10800FDF730FC07EB0900C5E90C7941
:10334000FD214038C5E90E08002085F82F00C5F89A
:103350002B00C5F82700C5F8230085F8221018496E
:1033600085F821A085F820A0009E396013490978CE
:1033700049070AD511213A1D4FF0CC33A1EB990131
:1033800001E008C201310029FBD1A96B002202E053
:1033900041F8220001320D2AFAD10A4A4FF080701A
:1033A0000E62C1E90D28C863034807490166284633
:1033B000FEF744FD43E700BF7C6F002030580E0845
:1033C000A52E5AE2D92204086B1F040870B5C8B1B3
:1033D00004460078F12815D1607800F00F0001282C
:1033E00013D0032815D002281CBF6FF0020070BD57
:1033F00025496FF002000A7A022A18BF70BD496A97
:1034000069B970BD6FF0030070BD2046FEF78FFDF7
:1034100005E02046FEF78BFD2046FEF7D7FCE06A6C
:10342000FEF7B1FBA06918B100210022FEF720FED3
:103430006078022811D1144DEFF30980A063686A07
:1034400081680029696202D005F11C02CA60002669
:10345000C660FEF7E7FD6E6102E00020FEF7EEFCBD
:10346000E078C00703D12046FEF716FD0AE00020F1
:10347000E060042060700448416B0029A16000D026
:10348000CC604463002070BD7C6F0020B0B50C4858
:10349000017A022911D1446A7CB1456994F820105F
:1034A00095F82000814208D12046FEF740FD2846CD
:1034B000FEF770FD2046FEF7B5FD0020B0BD00BF51
:1034C0007C6F0020F8B50E46002198B3012E31D84C
:1034D000144605464BB198681F6870B181070FD13B
:1034E000DA680021202A15D224E000271349D1F8F8
:1034F0008C0038B1FEF761FA0AE0D8680028F5D0F0
:10350000002117E0D1F8800020210122FEF7D1F937
:1035100070B10121C67081704FF4F97101800021F2
:10352000C0E90171C0E90311C0E90515C46100E0FB
:1035300000200146084601B0F0BD00BF7C6F0020AE
:10354000B0B578B105460C466FF00300C1B12978DB
:10355000F22918BFB0BD6878022806D12846FDF7C9
:10356000A9FF08E06FF00300B0BD0748006D40B14F
:1035700002206C61687028462146FDF773FF002029
:10358000B0BD6FF00200B0BD7C6F002070B5044686
:103590004E492068884203D04D492068884208D1AE
:1035A0004C48006800F4403008B1012009E00020D8
:1035B00007E04948006800F4403008B1012000E00D
:1035C0000020B8B108F088FB05466068B0F5803F80
:1035D00006D0B0F5003F04D0B0F5403F08D105E07B
:1035E00000BF6068000CB5FBF0F502E0AD0800E03C
:1035F00000BF2AE04FF4002007F082F9054660681A
:10360000C0F31101F9B980140C281CD2DFE800F0D6
:103610001B060708090A0B111315171900BF00BF75
:1036200000BF00BF00BF6068800C4000B5FBF0F534
:103630000AE02D0908E06D0906E0AD0904E0ED0996
:1036400002E02D0A00E000BF00BF05F0D1FE41F20C
:103650000301884210D82148854206D92068806835
:1036600040F48070216888602FE02068806820F432
:1036700080702168886028E06D081948854206D866
:103680002068806820F44070216888601DE015483B
:10369000854208D82068806820F4407040F480702B
:1036A0002168886011E01048854208D82068806849
:1036B00020F4407040F400702168886005E02068C4
:1036C000806840F440702168886070BD002002402E
:1036D000002102400823024008630258002D3101F6
:1036E000105E5F0020BCBE0040787D0170B50446CE
:1036F00020680DF094F8064620680DF095F870B338
:103700006EBB2068806800F00D0001280AD1206897
:103710008168174A1140891C816000BF032021681D
:10372000086009E0606D40F010006065A06D40F039
:103730000100A065012070BD05F060FE05460FE0A8
:1037400005F05CFE401B02280AD9606D40F01000B5
:103750006065A06D40F00100A0650120EBE705E089
:103760002068806800F001000028E9D10020E2E72D
:10377000C0FFFF7F70B5044620680DF055F80028A3
:103780004CD1206880682649084048B1606D40F0FF
:1037900010006065A06D40F00100A065012070BDC3
:1037A00020680DF025F805F029FE05461D4A216820
:1037B000914203D01C4A2168914201D11B4900E08B
:1037C0001B4908460DF021F8064617492068884233
:1037D00001D1144800E020682168884200D0E6B991
:1037E00015E020680DF020F810B920680DF000F801
:1037F00005F004FE401B022809D9606D40F010005E
:103800006065A06D40F00100A0650120C7E7206859
:10381000006800F001000028E3D000BF0020BEE7F0
:103820003F000080002002400021024000230240AF
:103830000063025808B506F0E7FC00BF06480068C0
:1038400040F08050044908600846006800F080504D
:10385000009000BF00BF08BDE044025800BFFEE773
:1038600070B503460C4600210BE04800401C34F8BC
:1038700010004E0034F8166040EA06401E683060C2
:10388000491CB1EB520FF0D302F0010020B11D68CA
:10389000480034F8100028801868006870BDF0B542
:1038A00004460B46002113E013F8210007068800A8
:1038B000401C185C47EA00478800801C185C47EAF7
:1038C00000208F00FF1CDF5D384327683860491CEB
:1038D000B1EB920FE8D302F0030030B302F0030023
:1038E000012803D113F821002768387002F0030083
:1038F000022808D18800401C185C13F8217040EAA7
:1039000007252668358002F0030003280DD18800C2
:10391000401C185C13F8217040EA072526683580A2
:103920008800801C185C2768387020680068F0BD2B
:1039300070B505460C465748007900F0020010B9F2
:103940004FF0FF3070BD012D0CD0022D0AD0032D99
:1039500008D0042D06D0052D04D0062D02D06FF01E
:103960000400EFE7072D6FD2DFE805F091046F71D7
:103970007D917E004749086A474903F091FE454919
:10398000086A464903F077FF04F0030010B10128EC
:1039900009D103E000204049486107E04FF480402E
:1039A0003D49486102E06FF00300CBE700BF04F03F
:1039B000040028B1042807D1C0023749886106E015
:1039C00000203549886102E04FF0FF30BAE700BFC0
:1039D00004F0100018B101202F49087702E0002000
:1039E0002D49087704F0200018B101202A490871F8
:1039F00002E000202849087104F0800018B101207D
:103A00002649487202E000202449487204F480707C
:103A100018B101202149487102E000201F49487176
:103A200004F4007018B101201C49087002E0002065
:103A30001A4908701749086A174904F0E5F9154949
:103A4000086A164904F0F2F921E000207AE724B16F
:103A50001049086A04F03CFA03E00E49086A04F0D1
:103A6000A5FA00206EE712E084B104F4803038B18A
:103A7000A2B20849086A4FF4803104F00BFA05E05D
:103A8000A2B20449086A002104F004FA00BF00BF92
:103A9000002057E73485002058850020BC85002091
:103AA00002466FF00300704770B50446A56B2846C8
:103AB00002F00EFA0120287170BD70B50446A56BA6
:103AC000284602F026F90120287170BD70B5054620
:103AD000AC6B206940F004002061204602F0FAF946
:103AE0000120207170BD70B50546AC6B206940F0B7
:103AF00004002061204602F00EF90120207170BD03
:103B000070B50446A56B284602F0E3F970BD70B5A8
:103B10000446A56B284602F0FDF870BD0146374A01
:103B20000868904249D0354A18320868904244D01B
:103B3000324A3032086890423FD0304A48320868F2
:103B400090423AD02D4A60320868904235D02B4AD4
:103B500078320868904230D0284A90320868904203
:103B60002BD0264AA8320868904226D0244A0868FA
:103B7000904222D0224A1832086890421DD0204A32
:103B800030320868904218D01D4A48320868904286
:103B900013D01B4A6032086890420ED0184A78321F
:103BA0000868904209D0164A90320868904204D0C2
:103BB000134AA8320868904201D1012000E0002099
:103BC000B0B10A78103A1823B2FBF3F000F0070204
:103BD0000C4B9A5CCA65032805D90A686FF3090281
:103BE000121D8A6503E00A686FF309028A6503E023
:103BF000086820F0FF008865886D7047100002405B
:103C0000100402403D550E0810B502682B4C0368A5
:103C1000A34222D0294C14340368A3421DD0274C60
:103C200028340368A34218D0244C3C340368A342D0
:103C300013D0224C50340368A3420ED01F4C64347E
:103C40000368A34209D01D4C78340368A34204D012
:103C50001A4C8C340368A34201D1012300E00023F5
:103C60008BB10378083B1424B3FBF4F1144B03EB42
:103C700081030366124B8033436601F01F04012366
:103C8000A340836618E00378103B1824B3FBF4F1DB
:103C90000C4B9A4204D80B4BA83B9A4200D30831F4
:103CA000094B03EB81030366074B8033436601F046
:103CB0001F040123A340836610BD0000085402586E
:103CC00000580258B8040240000802400179A9B324
:103CD000082940D8204B02689A4222D01E4B143348
:103CE00002689A421DD01C4B283302689A4218D0B1
:103CF000194B3C3302689A4213D0174B5033026879
:103D00009A420ED0144B643302689A4209D0124B87
:103D1000783302689A4204D00F4B8C3302689A427F
:103D200001D1012200E000224AB14A1E0B4B03EBF5
:103D30008202C266094A4032026708E00BE04A1E6E
:103D4000074B03EB8202C266054A403202674A1EF5
:103D500001239340436770470854025800590258A2
:103D600000090240014600208A69D2B98A6A32B14C
:103D7000012A0DD0022A03D0032A10D10EE000BF81
:103D8000CA6A02F08072B2F1807F00D1012007E0A0
:103D9000CA6AB2F1C07F00D1012001E000E000BF9B
:103DA00036E08A69B2F5005F1BD18A6A32B1012A16
:103DB00007D0022A03D0032A11D10AE000BF012054
:103DC0000EE0CA6A02F08072B2F1807F00D1012059
:103DD00006E0CA6AB2F1C07F00D1012000E000BF56
:103DE00016E08A6A32B1012A05D0022A04D0032AD9
:103DF0000CD103E000BF00BF012008E0CA6A02F056
:103E00008072B2F1807F00D1012000E000BF00BFCE
:103E100070470000F0B5856D846D984F0668BE420E
:103E200070D0964F18370668BE426BD0934F30372C
:103E30000668BE4266D0914F48370668BE4261D0E0
:103E40008E4F60370668BE425CD08C4F783706686C
:103E5000BE4257D0894F90370668BE4252D0874F36
:103E6000A8370668BE424DD0854F0668BE4249D08D
:103E7000834F18370668BE4244D0814F30370668FA
:103E8000BE423FD07E4F48370668BE423AD07C4F94
:103E900060370668BE4235D0794F78370668BE4233
:103EA00030D0774F90370668BE422BD0744FA8377A
:103EB0000668BE4226D0734F0668BE4222D0714FBC
:103EC00014370668BE421DD06E4F28370668BE42C2
:103ED00018D06C4F3C370668BE4213D0694F50373C
:103EE0000668BE420ED0674F64370668BE4209D0EE
:103EF000644F78370668BE4204D0624F8C3706683C
:103F0000BE4201D1012600E000263EB1D0E919767B
:103F10007E60C66E16B1D0E91C767E60574F06688B
:103F2000BE4249D0554F18370668BE4244D0534F61
:103F300030370668BE423FD0504F48370668BE4211
:103F40003AD04E4F60370668BE4235D04B4F783777
:103F50000668BE4230D0494F90370668BE422BD02B
:103F6000464FA8370668BE4226D0454F0668BE4277
:103F700022D0434F18370668BE421DD0404F30371D
:103F80000668BE4218D03E4F48370668BE4213D07E
:103F90003B4F60370668BE420ED0394F783706680F
:103FA000BE4209D0364F90370668BE4204D0344F27
:103FB000A8370668BE4201D1012600E00026DEB126
:103FC00090F85C6006F01F073F26BE40AE600668B2
:103FD000366826F4802607683E6006687360866847
:103FE000402E04D10668B2600668F16044E00668BD
:103FF000B1600668F2603FE0224F0668BE4222D000
:10400000204F14370668BE421DD01E4F2837066861
:10401000BE4218D01B4F3C370668BE4213D0194F22
:1040200050370668BE420ED0164F64370668BE424F
:1040300009D0144F78370668BE4204D0114F8C3730
:104040000668BE4201D1012600E00026A6B190F824
:104050005C6006F01F070126BE406660066873605C
:104060008668402E04D10668B2600668F16003E0FD
:104070000668B1600668F260F0BD00001000024002
:104080001004024008540258704710B5002210E096
:1040900002EB4204036903EBC40100230B604B6095
:1040A0008B60CB600B614B6100F12C0343F8221055
:1040B000521C042AECD30024C46304644464C46422
:1040C00084640324036803F58053C3F83041036814
:1040D00003F580530469C3F81C41036903F5D863F1
:1040E000046804F58054C4F8283110BD10B50022CE
:1040F0000EE002EB4204C36803EBC40100230B6033
:104100004B608B60CB6000F1180343F82210521C07
:10411000042AEED3002484620324036803F5805349
:10412000C3F82C41036803F58053C468C3F81441F5
:10413000036803F58053C468C3F8204110BD10B56F
:10414000A2B0044601208DF83300002012908DF8B3
:1041500041008DF8430001208DF828008DF85600AD
:104160008DF8320000208DF84C0001208DF884007D
:1041700040030F9000208DF85C0018908DF88500AA
:104180008DF886004FF4C360169000208DF8300043
:104190000B9001208DF8350000208DF836008DF849
:1041A00040001D901B9014908DF864008DF87A00EB
:1041B00001208DF842002020209001208DF844003D
:1041C00000208DF855004FF0405009904FF480408A
:1041D0000E9000208DF8310002201F9000208DF8F5
:1041E00078008DF879008DF8540001208DF83400A6
:1041F00000201A9001208DF8700009A9204600F0D7
:1042000061FA01208DF804000290002000908DF8E2
:104210001C008DF80D008DF80C004FF40010069076
:1042200000208DF814004FF40010049000208DF849
:104230001D004FF4067008906946204600F0E4F92E
:1042400022B010BD70B506463068D0F8004224F4A4
:10425000706407F041FD05461348854205D31348B5
:10426000854202D244F400741AE01048854205D316
:104270000F48854202D244F4407411E00C48854254
:1042800003D30C48854200D20AE00A48854205D390
:104290000948854202D244F4807401E044F4806409
:1042A0003068C0F8004270BD002D3101C00E16020A
:1042B0000087930300E1F50580D1F0082DE9F04770
:1042C00006460B46914606F118052A69D5F810C036
:1042D000002755F822109C68C86800F00040B0F133
:1042E000004F02D10220BDE8F087187800F00400EA
:1042F000C8B3C8686FF30F00D3F824A040EA0A00DF
:10430000C860C86840F48030C8603068006E40F40F
:104310008010D6F800A0CAF86000187800F00800F5
:1043200008B3B3F82CA088686AF31F408860C86897
:1043300040F40030C860C86820F44020D3F830A0B2
:1043400040EA0A00C8603068406E40F48010D6F839
:1043500000A0CAF864003068006D40F08060D6F8B4
:1043600000A0CAF85000187800F0100058B1886812
:104370006FF30D00D3F818A040EA0A008860C868FF
:1043800040F08060C860187800F0040018B9187810
:1043900000F01000F0B1C86840F08040C860C86804
:1043A00040F00040C86000BF521C042A00D3121F16
:1043B00000BF55F822107F1CC86800F00040B0F123
:1043C000004F07D155F82C10C86820F00040C86095
:1043D000022088E77F1C2068086088686FF30D0062
:1043E000D4F804A040EA0A008860A06868B1A46814
:1043F000206848608868DFF80CA200EA0A00B4F878
:1044000004A040EA0A40886007E00020486088680D
:10441000DFF8F0A100EA0A008860187800F01000C8
:10442000A0B1C86820F4F000B3F820A040EACA4068
:10443000C860C8686FF31100D3F81CA040EA0A00F6
:10444000C860C86840F48020C8601FE0C8686FF387
:104450000E00D3F804A040EA0A00C860187800F003
:10446000010038B1C86820F44030D3F814A040EA05
:104470000A00C860187800F0200038B1C86820F041
:104480004060D3F810A040EA0A00C860187800F035
:10449000040038B1886820F44040D3F828A040EAEE
:1044A0000A008860C86840F00050C860C86820F002
:1044B0008040C860C86840F00040C860187800F0CC
:1044C000020038B1C86820F06070D3F80CA040EA50
:1044D0000A00C8607EE0C86820F08050C86000BF55
:1044E000521C042A00D3121F00BF55F82210C868BE
:1044F00020F00050C860C86800F00040B0F1004FE4
:1045000017D1624655F822104FF000080DE0C86838
:1045100020F00040C86000BF521C042A00D3121FC4
:1045200000BF55F8221008F10108B845EFD302206A
:10453000D9E67F1CA4682068086088686FF30D00C6
:10454000D4F804A040EA0A008860A06868B1A468B2
:10455000206848608868DFF8ACA000EA0A00B4F878
:1045600004A040EA0A40886007E0002048608868AC
:10457000DFF890A000EA0A008860187800F01000C8
:1045800060B1C8686FF31100D3F81CA040EA0A00BC
:10459000C860C86840F48020C86013E0C8686FF342
:1045A0000E00D3F804A040EA0A00C860187800F0B2
:1045B000010038B1C86820F44030D3F814A040EAB4
:1045C0000A00C860C86840F00040C860C86820F0B1
:1045D0008040C860A06800287FF47DAFB9F1000F6B
:1045E00004D0886840F00040886003E0886820F0CC
:1045F00000408860C86840F08050C8602A61002090
:1046000071E60000FFFF00C010B5036803F580539A
:104610001B6847F60204A3430C682343046804F5AF
:10462000805423600C798B6843EA04330C7B43EAA3
:10463000C432036803F580535B684DF20104A34361
:104640001343046804F5805463604C7B0B6A43EAAF
:104650000442036803F58053D3F80031164C23401D
:104660001343046804F58054C4F800310C7D0B69D1
:1046700043EA04134C7F43EA0432036803F5805392
:10468000D3F804310D4C23401343046804F58054DF
:10469000C4F804310C7F8B6943EAC472036803F5E4
:1046A0008053D3F80831064C23401343046804F5C3
:1046B0008054C4F8083110BD00C0FEFFEFEFC0FF0A
:1046C000FFFFC07F10B50C688B6823430C7943EA69
:1046D000C4630C7B43EAC4534C7B43EA84538C7B16
:1046E00043EA4453CC7B43EA04530C7C0CB90124C9
:1046F00000E0002443EAC4434C7C0CB9012400E0F0
:10470000002443EA44438C7C43EA04434C6923433A
:104710008C6923430C7F43EA04334C7F43EAC42370
:104720008C7F0CB9012400E0002443EA8423CC7F71
:1047300043EA442391F820400CB9012400E000240E
:1047400043EA042351F8244F23430C7943EA04132A
:104750008C6843EA040203681B683D4C2340134302
:10476000046823600B7E5B060C7D43EA04630C7BCC
:1047700043EA84434C7B43EA44438C7B24390CB9A1
:10478000012400E0002443EA04434C6B43EA0402A2
:1047900003685B682F4C234013430468636091F8FF
:1047A00040404B6C43EA04220368DB6840F20F147C
:1047B000A34313430468E36091F854400B6D43EA4C
:1047C000440391F84C400CB9012400E0002443EA72
:1047D000C41331F8484F43EA044203681B6F4FF695
:1047E0000D7423401343046823678B7B4C7B43EA9F
:1047F00044020368D3F8903023F0030313430468A2
:10480000C4F890300368D3F8003D23F072030C69BC
:1048100023430468C4F8003D0C7E4B6948390CB949
:10482000012400E0002443EA841391F8614043EA44
:10483000041391F8624043EAC4020368D3F8303DA0
:1048400023F07B0313430468C4F8303D10BD00001F
:10485000838004000080F8C010B5024803F0ECFE2D
:1048600010BD0000E874002010B5024803F0E4FE1B
:1048700010BD00008875002010B501464A6B08681D
:10488000D0F884004FF6FC74A04340EA82000C6824
:10489000C4F884000868D0F8840020F47F04088FEE
:1048A00044EA00400C68C4F88400886B024408683D
:1048B000D0F888004FF6FC74A04340EA82000C68F0
:1048C000C4F888000868D0F8880020F4FE04888FB7
:1048D00044EA00400C68C4F88800C86B02EB400250
:1048E0000868D0F8A0004FF6FC74A04340EA8200AC
:1048F0000C68C4F8A0000868D0F8A00020F4FE04FA
:104900004020405A44EA00400C68C4F8A000D1E9B5
:10491000104004FB00220868D0F8B0004FF6FC7489
:10492000A04340EA82000C68C4F8B0000868D0F8E0
:10493000B00020F4FE04B1F8480044EA00400C68DE
:10494000C4F8B000D1E9124004FB00220868D0F896
:10495000AC004FF6FC74A04340EA82000C68C4F837
:10496000AC00D1E9144004FB00220868D0F8F00044
:104970004FF6FC74A04340EA82000C68C4F8F000D3
:104980000868D0F8F00020F47C14B1F8580044EA2C
:1049900000400C68C4F8F000886D02EB4002086823
:1049A000D0F8C0004FF6FC74A04340EA82000C68C7
:1049B000C4F8C0000868D0F8C00020F47C14B1F836
:1049C0005C0044EA00400C68C4F8C0000868D0F8F5
:1049D000C00020F07C5491F8600044EA00600C684C
:1049E000C4F8C0002A4C486B04EB8000C866CC6E4B
:1049F000886B04EB80040C670C6FC86B04EBC0047D
:104A00004C67D1E9100460434C6F04EB80048C6761
:104A1000D1E9120460438C6F04EB8004CC67D1E9C8
:104A200014046043CC6F04EB80048020445044584D
:104A3000886D04EBC004842044508C6EC86D6043C4
:104A40008424645804EB8004882044508C6E086EE3
:104A500060438824645804EB8004902044504058FC
:104A60000C4CA04209D99831486840F020004860B9
:104A7000032001F89809012010BDCB6E02E0002050
:104A800018601B1D902040589842F8D80020F3E78A
:104A900000AC0040FCD300402DE9F041054614462F
:104AA0001E46D1F804C0BCF1000F0AD1D1F810C0E5
:104AB000D1F808804CEA080CB1F800804CEA884331
:104AC0000BE0D1F810C04CF0804CD1F808804CEAD3
:104AD000080CD1F800804CEA080391F82080D1F846
:104AE0001CC04CEA086CD1F818804CEA080CD1F8CC
:104AF00014804CEA080CD1F80C804CEA0807D5F871
:104B000068C00CFB06FCD5F8848008EB8C021360AF
:104B1000121D1760121D002019E000F1030C14F89B
:104B20000CC04FEA0C6800F1020C14F80CC048EA03
:104B30000C4800F1010C14F80CC048EA0C2C14F8D5
:104B400000804CEA080CC2F800C0121D001DDFF8FE
:104B50001880D1F80CC008EB1C4C9CF800C08445B0
:104B6000DBD8BDE8F081000048550E0870B504465A
:104B7000B3F5804F13D1D1E9000540EA05108D68E7
:104B800040EA05208D6928438D8940EA054054F8A4
:104B90002250064E3540284344F8220003E06FF0CF
:104BA000704044F82200002070BD00000000F0CFEB
:104BB00030B50246086852F8200020F001000C6869
:104BC00042F824008868082801D1402300E000232F
:104BD000486818438C682043CC6820430C69204304
:104BE0004C6920438C692043CC6920430C6A2043E4
:104BF0004C6A20438C6A2043CC6A20430C6B2043D0
:104C00004C6B20438C6B20430C6852F824400D4DB4
:104C10002C4020430C6842F82400086BB0F5801F3C
:104C200007D1086828B1106820F480100C6B20436D
:104C30001060086818B110684C6B204310600020A9
:104C400030BD00008004C0FF30B50346D1E9000547
:104C500040EA05108D6840EA05208D8940EA054547
:104C6000088A401E45EA0055087D801E45EA00601E
:104C70008D692843551C53F8255005F040452843BD
:104C8000551C43F82500186800F48010B0F5801F0B
:104C90000BD1586820F47004088A401E44EA00547E
:104CA000586820F4700020435860002030BD024650
:104CB0000868B0B9D1E901031843CB6818430B6900
:104CC00018434B6918438B691843CB6918430B6A27
:104CD00018434B6A184313686FF30E0318431060B0
:104CE00019E0D1E9070318434B6A1843136823F40A
:104CF000F84318431060D1E901031843CB68184307
:104D00000B6918434B6918438B69184353686FF359
:104D10000E0318435060002070470246506943F666
:104D2000FE73984340EA410050610020704710B57F
:104D30000346D1E9000420438C68641E40EA441015
:104D4000CC6840EA44201C6920431861002010BD53
:104D500030B50346FAB90868401E4C68641E40EA44
:104D600004148868401E44EA0024C868401E44EACF
:104D70000034088A401E44EA0044888A401E44EAFF
:104D80000054087E401E44EA00609C6804F07044B1
:104D90002043986022E0C868401E0403888A401EB1
:104DA00044EA00509C680E4D2C40204398600868EF
:104DB000401E4C68641E40EA04148868401E44EAA1
:104DC0000024088A401E44EA0044087E401E44EA4B
:104DD0000060DC6804F070442043D860002030BDDF
:104DE000FF0F0FFF01480068704700002C290E08D4
:104DF0000EB5002001901748807A00F0020028B11B
:104E0000144801AA1F21036800209847BDF8040038
:104E1000012121EA9001029861F301000290BDF89E
:104E200004000109029861F382000290029800993F
:104E300060F30101009102988108009861F38200FB
:104E400000900298C108009861F3DF00009000987C
:104E50000EBD00007090002038B50020009008487A
:104E6000807A00F0020028B105486A4601210368F3
:104E700000209847BDF80000C0F38004204638BDEC
:104E800070900020014611B96FF0040070470C4883
:104E9000007900F0020010B94FF0FF30F6E7094842
:104EA0000268100A48710A710748D0F80423100EEE
:104EB000C870100C8870100A48700A700020E5E76E
:104EC00034850020008302400080024038B5002075
:104ED00000902948006800F4803000283BD000BFD3
:104EE0000023254C7034236000BF00BF00BF00BF0B
:104EF000BFF34F8F00BF00BF00BF231F1868C0F370
:104F00004E3100BFC0F3C90200BF43F6E07303EAAD
:104F100041134FF0404404EA82742343174C23604A
:104F200000BF00BF131EA2F10102EED10B1EA1F1C2
:104F30000101E7D100BF00BF00BFBFF34F8F00BF2B
:104F400000BF00BF00BF00BF00BFBFF36F8F00BF37
:104F500000BF00BF00BF0A49086A143102F0C9FC53
:104F600038B90749086A694602F023FD08B9009874
:104F700038BD0020FCE7000014ED00E074EF00E015
:104F80003485002001466FF00300704701466FF042
:104F90000300704708B502480068009008BD000093
:104FA00028290E0808B502480068009008BD0000D6
:104FB000FC2A0E08F8B504460D461646002000905F
:104FC00000BF94F85000012801D10220F8BD012053
:104FD00084F8500000BF2046FEF788FB0746A7BBB9
:104FE000606D20F4885040F002006065206805F490
:104FF000803141F0004106F0804211438268194B34
:105000001A401143816000BF13E00098401C0090DB
:105010001549009888420CD3606D20F0020040F0E2
:105020001000606500BF002084F8500000BF012020
:10503000CCE720688168C90F0029E6D1606D20F0B7
:10504000020040F00100606504E0FFE7606D40F0A1
:105050001000606500BF002084F8500000BF384693
:10506000B4E70000C0FFFE3F00F8C3252DE9F84F6C
:1050700004460D464FF0000A0020009094F83800D6
:10508000012800D100E000BFF749E868884200D05D
:105090000EE0F6492068884200D100BFF44920683C
:1050A000884200D100BFF3492068884200D100BF88
:1050B00000BF94F85000012802D10220BDE8F88F0B
:1050C000012084F8500000BF20680BF0B7FB0028D7
:1050D0007ED12068C1692868C0F3130018B9286818
:1050E000C0F3846004E0286890FAA0F0B0FA80F081
:1050F00000F01F020120904001432068C161216837
:10510000D5E9002001F1300CC0F3012B0CEB8B032F
:10511000D3F800C000F01F0E4FF01F0B0BFA0EFB70
:105120002CEA0B0C00F01F0BC2F3846E0EFA0BFE80
:105130004CEA0E0CC3F800C000BF20680BF07EFBE9
:10514000814620680BF066FB8046B9F1000F6FD1F5
:10515000B8F1000FFBD1AA68296820680BF084FB26
:10516000C548006800F07040B0F1805F07D1686901
:105170002168C968C1F382014900884014E02068B1
:10518000C06800F0100038B968692168C968C1F3C7
:1051900082014900884007E068692168C96801F018
:1051A000100189084900884007462869042840D032
:1051B00020682A68296900F1600C0CEB8103D3F8A0
:1051C00000C00CF0004C02F0F84B4BEA070B00E07B
:1051D000C9E14CEA0B0CC3F800C000BF20686A7E2E
:1051E0002969012A01D1D20700E00022134600F10B
:1051F000600C0CEB8102D2F800C02CF0004C4CEAA1
:10520000030CC2F800C000BF20682B7E2969012B67
:1052100001D1DB0200E000231A46036923F4F043C6
:1052200001F01F0C02FA0CFC43EA0C03036100BFFF
:1052300037E02068006E00F0F8402978B0EB816F0D
:1052400005D12068006E20F00040216808662068C3
:10525000406E00F0F8402978B0EB816F05D12068EE
:10526000406E20F00040216848662068806E00F0A3
:10527000F8402978B0EB816F05D12068806E20F06E
:105280000040216888662068C06E00F0F8402978E8
:10529000B0EB816F05D12068C06E20F0004021681E
:1052A000C86620680BF0C0FA002870D12068EA6850
:1052B0002968D0F8C0C0C1F313032CEA030C02F034
:1052C000180B6E4B23FA0BF30B404CEA030CC0F89F
:1052D000C0C000BF6449E86888427DD12B68C3F331
:1052E00013031BB92B68C3F3846304E02B6893FAA0
:1052F000A3F3B3FA83F35B1C03F01F03092B3ED81F
:105300002B68C3F313031BB92B68C3F3846304E056
:105310002B6893FAA3F3B3FA83F35B1C03F01F0328
:105320004FF0010C0CFA03FC2B68C3F313031BB9F9
:105330002B68C3F3846304E02B6893FAA3F3B3FAF6
:1053400083F35B1C03F01F034CEA836C2B68C3F3ED
:1053500013031BB92B68C3F3846304E02B6893FA2F
:10536000A3F3B3FA83F35B1C03F01F0303EB4303C4
:105370004FF0000B4BEA03534CEA030341E02B6868
:10538000C3F3130323B92B68C3F3846305E0A8E0D8
:105390002B6893FAA3F3B3FA83F35B1C03F01F03A8
:1053A0004FF0010C0CFA03FC2B68C3F313031BB979
:1053B0002B68C3F3846304E02B6893FAA3F3B3FA76
:1053C00083F35B1C03F01F034CEA836C2B68C3F36D
:1053D00013032BB92B6800E018E0C3F3846304E0E7
:1053E0002B6893FAA3F3B3FA83F35B1C03F01F0358
:1053F0000A3B03EB43034FF0007B4BEA03534CEAB9
:1054000003031946AA6820680BF02EFA286800F0FA
:105410000040002865D0154A2168914203D0144A03
:105420002168914201D1164900E016490846816879
:1054300001F0E07600BF0D492068884203D00C4996
:105440002068884201D10E4800E00E480C4988428D
:105450001AD106480BF0E8F9834605480BF0E4F949
:105460004BEA000013E000000000FF47002002406C
:1054700000210240006002580010005CFFFF0F0096
:1054800000230240006302583D480BF0CDF9E8BB11
:105490003C492868884225D106F4000010BB3849F1
:1054A0002068884265D1384B22689A4203D0374B36
:1054B00022689A4201D1364A00E0364A104646F444
:1054C00000010BF0E5F9344800683449B0FBF1F015
:1054D0004000009002E00098401E009000980028D4
:1054E000F9D146E02E492868884219D106F080702B
:1054F000B0B92349206888423BD1234B22689A42A5
:1055000003D0224B22689A4203D100E024E0204AD3
:1055100000E0204A104646F080710BF0B9F928E00F
:1055200020492868884224D106F4800008BB144929
:10553000206888421DD1144B22689A4203D0134B35
:1055400022689A4201D1124A00E0124A104646F4FB
:1055500080010BF09DF90CE0606D40F0200060656B
:105560004FF0010A05E0606D40F0200060654FF0EB
:10557000010A00BF002084F8500000BF50469DE59E
:1055800000600258000084CB00200240002102404D
:1055900000230240006302586C5D0020400D0300B0
:1055A000000052C70000B8CF01460868006C704781
:1055B0002DE9F84F04464FF000090020009014B97F
:1055C0000120BDE8F88FE06818B1207F012800D1E4
:1055D00000BF606D30B9204600F030F90020A065B2
:1055E00084F8500020688168C1F3407131B12068AF
:1055F0008168874A1140816000BF00BF20680BF0BE
:1056000018F9A0B920688168824A114041F08051A0
:10561000816000BF804800688049B0FBF1F00090D5
:1056200002E00098401E009000980028F9D1206800
:105630000BF0FFF848B9606D40F010006065A06D98
:1056400040F00100A0654FF0010920680BF0F6F86A
:105650000646606D00F0100000287DD1002EFCD1C0
:10566000606D20F4807040F00200606520680BF0EF
:10567000DBF878BB6A492068884203D06949206812
:10568000884201D1684800E068486749884209D1EA
:1056900063480BF0C9F8824662480BF0C5F84AEA45
:1056A000000002E062480BF0BFF898B95C4B22683A
:1056B0009A4203D05B4B22689A4201D15A4A00E0D9
:1056C0005A4A10466168826822F47C120A4382605A
:1056D00000BF00BF03F08CFE41F2030188420ED9E7
:1056E000A06810280BD1607D216B41EA4030A16891
:1056F000084340F00C01207F41EA004508E0607D4E
:10570000216B41EA4030A1680843217F40EA01450E
:10571000207F012803D1208C401E45EA4045606A65
:1057200028B1A08C00F47870A16A08430543206872
:10573000C0684049084028432168C86020680BF0D1
:105740007DF8804620680BF065F80746B8F1000F39
:105750003BD1D7BB207D00E051E0E16A41EA8035D2
:105760002068C06844F20301884328432168C86068
:1057700094F83800012817D1606A08B1A06A00B90E
:1057800000BFA08F401E012141EA0041206C084368
:10579000616C0843A16C084321680969264A1140DD
:1057A00008432168086105E02068006920F00100D5
:1057B000216808612068006920F07040616B08432F
:1057C000216808612046FDF7E1FEE068012809D163
:1057D0002068006B20F00F00A169491E0843216872
:1057E000086305E02068006B20F00F002168086363
:1057F000606D20F0020040F00100606505E0606D22
:1058000040F0100060654FF001094846D9E60000FD
:10581000C0FFFF5FC0FFFF7F6C5D0020400D0300F5
:105820000020024000210240002302400063025891
:105830000060025803C0F0FF1EF800FC10B586B0EF
:1058400004463448844230D100BF3348006840F0F9
:105850002000314908600846006800F020000090F0
:1058600000BF00BF2C480830006840F002002A4901
:10587000083108600846006800F00200009000BF90
:1058800025488038006820F4403040F40030224938
:1058900080390860022001900320029000200390CC
:1058A00001A91E4803F092FC32E01A48C830844235
:1058B0002ED100BF18480830006840F080701649AB
:1058C000083108600846006800F08070009000BF52
:1058D00000BF0846006840F0040008600846006801
:1058E00000F00400009000BF0B488038006820F4EE
:1058F000403040F4003008498039086008200190A9
:10590000032002900020039001A9054803F05EFCEB
:1059100006B010BDF40A2BD1D84402580004025836
:10592000000802582DE9F04704460F46504A216806
:10593000914203D04F4A2168914201D14E4900E083
:105940004E4908460AF061FF05462069082801D142
:10595000082628E01DB1052D01D0092D0DD12068A4
:10596000C06800F0010030B1606D40F0200060655B
:105970000120BDE8F087042615E03D4A21689142E8
:1059800003D03C4A2168914201D13B4900E03B49A8
:1059900008460AF035FF28B1606D40F020006065D0
:1059A0000120E6E7042603F029FD804614E0B7F560
:1059B0007A7F11D003F022FDA0EB0800B84200D896
:1059C00057B9606D40F00400606500BF002084F8A6
:1059D000500000BF0320CCE720680068304000285A
:1059E000E5D0606D40F40070606520680AF02BFF20
:1059F00098B1607D88B92068006800F00800082828
:105A00000BD1606D20F480706065606D00F4805093
:105A100018B9606D40F00100606516492068884241
:105A200001D1134800E020682168884204D01DB1EC
:105A3000052D01D0092D03D12068D0F80C9009E084
:105A40000C492068884201D1094800E0206882465C
:105A5000DAF80C90082E03D108202168086005E0D0
:105A600009F4804010B90C2021680860002080E70C
:105A7000002002400021024000230240006302583F
:105A80002DE9F0410446474A2168914203D0464A35
:105A90002168914201D1454900E0454908460AF094
:105AA000B4FE054620680AF0C9FE002877D100BF81
:105AB00094F85000012802D10220BDE8F0810120B5
:105AC00084F8500000BF2046FDF754FE0646002E25
:105AD00060D1606D40F60161884340F4807060657C
